:020000020000FC
:0200000050C0EE
:0200040018954D
:02000800189549
:02000C00189545
:02001000189541
:0200140018953D
:02001800189539
:02001C00189535
:02002000189531
:0200240018952D
:02002800189529
:02002C00189525
:02003000189521
:0200340018951D
:02003800189519
:02003C00189515
:02004000189511
:0200440083C077
:02004800189509
:02004C00189505
:02005000189501
:020054001895FD
:020058001895F9
:02005C001895F5
:020060008FC04F
:020064001895ED
:020068001895E9
:02006C001895E5
:020070001895E1
:020074001895DD
:020078001895D9
:02007C001895D5
:020080001895D1
:020084001895CD
:020088001895C9
:02008C001895C5
:020090001895C1
:020094001895BD
:020098001895B9
:02009C001895B5
:1000A000189504E0B4E0ABE00C9303E0B4E0ACE0FE
:1000B0000C930CEDB4E0A1E00C930FEFB4E0ACE4D2
:1000C0000C930BEFB4E0ACE60C930FEFB4E0ACEAAA
:1000D0000C9300E0B6E0A0E00C930DE0B6E0A2E0E7
:1000E0000C9302E0B6E0A8E00C9300E4B6E0A9E0CF
:1000F0000C9301E0B6E0AEE00C9301E0B6E0ACE0BA
:100100000C9301E0B6E0A0E00C9300E0B9E0A0E0C1
:100110000C9301E0B9E0A2E00C9302E0B9E0A6E0A4
:100120000C93789400C0FFCFF89401ECB9E0A3E001
:100130000C9301E0B9E0A5E00C9378940895F8944D
:1001400000E0B9E0A3E00C9378940895F894B9E046
:10015000A5E01C9117FD0E94B20016FD0E94B6009A
:1001600078941895B9E0A8E00C9108950DEFB9E0E6
:10017000A8E00C91089501E0B6E0AAE00C93089580
:100180000F93BF93AF93B6E0A0E10C91B6E0A1E16D
:100190001C91B0E6A1E11D930C93AF91BF910F911B
:0201A0001895B0
:00000001FF
