:020000020000FC
:1000000028C018951895189518951895189518954D
:100010001895189518951895189518951895189578
:100020001895189518951895189518951895189568
:100030001895189518951895189518951895189558
:1000400018951895189518951895189543C01895F2
:1000500039C00E9430000E94480000C08895FECF41
:100060000AE810E0B8E0A8E00D931C9301E0B4E0CA
:10007000A1E00C9301E0B8E0ABE00C93D0E6C0E067
:10008000F0E6E0E450E000ECB8E0A6E00C93089560
:10009000B0E6A0E007E50D9309E40D9303E50D93A9
:1000A00003E40D930DE00D930AE00D9346E000EAA2
:1000B000B8E0A5E00C937894089500E8B8E0A5E0D6
:1000C0000C930895B8E0A2E009910C934A95403052
:1000D000A1F31895BF93AF930F93B8E0A0E00C91F4
:1000E000019353950F91AF91BF911895B8E0A0E09F
:1000F0000C9101935395B8E0A4E00C9107FF08958B
:02010000F5CF39
:00000001FF
